{
  "contractName": "Ballot",
  "abi": [
    {
      "constant": true,
      "inputs": [
        {
          "name": "",
          "type": "uint256"
        }
      ],
      "name": "proposals",
      "outputs": [
        {
          "name": "id",
          "type": "uint256"
        },
        {
          "name": "path",
          "type": "string"
        },
        {
          "name": "status",
          "type": "uint8"
        },
        {
          "name": "proposaler",
          "type": "address"
        },
        {
          "name": "begin",
          "type": "uint256"
        },
        {
          "name": "on",
          "type": "uint256"
        },
        {
          "name": "end",
          "type": "uint256"
        },
        {
          "name": "support",
          "type": "uint256"
        },
        {
          "name": "oppose",
          "type": "uint256"
        }
      ],
      "payable": false,
      "stateMutability": "view",
      "type": "function"
    },
    {
      "constant": true,
      "inputs": [],
      "name": "CouncilAmount",
      "outputs": [
        {
          "name": "",
          "type": "uint256"
        }
      ],
      "payable": false,
      "stateMutability": "view",
      "type": "function"
    },
    {
      "constant": false,
      "inputs": [
        {
          "name": "account",
          "type": "address"
        }
      ],
      "name": "addCouncil",
      "outputs": [],
      "payable": false,
      "stateMutability": "nonpayable",
      "type": "function"
    },
    {
      "constant": true,
      "inputs": [
        {
          "name": "",
          "type": "uint256"
        }
      ],
      "name": "superAdminAddress",
      "outputs": [
        {
          "name": "",
          "type": "address"
        }
      ],
      "payable": false,
      "stateMutability": "view",
      "type": "function"
    },
    {
      "constant": false,
      "inputs": [],
      "name": "renounceSuperAdmin",
      "outputs": [],
      "payable": false,
      "stateMutability": "nonpayable",
      "type": "function"
    },
    {
      "constant": true,
      "inputs": [
        {
          "name": "account",
          "type": "address"
        }
      ],
      "name": "isCommon",
      "outputs": [
        {
          "name": "",
          "type": "bool"
        }
      ],
      "payable": false,
      "stateMutability": "view",
      "type": "function"
    },
    {
      "constant": true,
      "inputs": [
        {
          "name": "",
          "type": "uint256"
        }
      ],
      "name": "CommonAddress",
      "outputs": [
        {
          "name": "",
          "type": "address"
        }
      ],
      "payable": false,
      "stateMutability": "view",
      "type": "function"
    },
    {
      "constant": false,
      "inputs": [
        {
          "name": "account",
          "type": "address"
        }
      ],
      "name": "removeCouncil",
      "outputs": [],
      "payable": false,
      "stateMutability": "nonpayable",
      "type": "function"
    },
    {
      "constant": false,
      "inputs": [
        {
          "name": "account",
          "type": "address"
        }
      ],
      "name": "removeCommon",
      "outputs": [],
      "payable": false,
      "stateMutability": "nonpayable",
      "type": "function"
    },
    {
      "constant": true,
      "inputs": [],
      "name": "CommonAmount",
      "outputs": [
        {
          "name": "",
          "type": "uint256"
        }
      ],
      "payable": false,
      "stateMutability": "view",
      "type": "function"
    },
    {
      "constant": true,
      "inputs": [
        {
          "name": "account",
          "type": "address"
        }
      ],
      "name": "isCouncil",
      "outputs": [
        {
          "name": "",
          "type": "bool"
        }
      ],
      "payable": false,
      "stateMutability": "view",
      "type": "function"
    },
    {
      "constant": true,
      "inputs": [],
      "name": "superAdminAmount",
      "outputs": [
        {
          "name": "",
          "type": "uint256"
        }
      ],
      "payable": false,
      "stateMutability": "view",
      "type": "function"
    },
    {
      "constant": false,
      "inputs": [
        {
          "name": "account",
          "type": "address"
        }
      ],
      "name": "addSuperAdmin",
      "outputs": [],
      "payable": false,
      "stateMutability": "nonpayable",
      "type": "function"
    },
    {
      "constant": true,
      "inputs": [
        {
          "name": "",
          "type": "uint256"
        }
      ],
      "name": "CouncilAddress",
      "outputs": [
        {
          "name": "",
          "type": "address"
        }
      ],
      "payable": false,
      "stateMutability": "view",
      "type": "function"
    },
    {
      "constant": true,
      "inputs": [
        {
          "name": "account",
          "type": "address"
        }
      ],
      "name": "isSuperAdmin",
      "outputs": [
        {
          "name": "",
          "type": "bool"
        }
      ],
      "payable": false,
      "stateMutability": "view",
      "type": "function"
    },
    {
      "constant": false,
      "inputs": [
        {
          "name": "account",
          "type": "address"
        }
      ],
      "name": "addCommon",
      "outputs": [],
      "payable": false,
      "stateMutability": "nonpayable",
      "type": "function"
    },
    {
      "anonymous": false,
      "inputs": [
        {
          "indexed": true,
          "name": "account",
          "type": "address"
        }
      ],
      "name": "CouncilAdded",
      "type": "event"
    },
    {
      "anonymous": false,
      "inputs": [
        {
          "indexed": true,
          "name": "account",
          "type": "address"
        }
      ],
      "name": "CouncilRemoved",
      "type": "event"
    },
    {
      "anonymous": false,
      "inputs": [
        {
          "indexed": true,
          "name": "account",
          "type": "address"
        }
      ],
      "name": "CommonAdded",
      "type": "event"
    },
    {
      "anonymous": false,
      "inputs": [
        {
          "indexed": true,
          "name": "account",
          "type": "address"
        }
      ],
      "name": "CommonRemoved",
      "type": "event"
    },
    {
      "anonymous": false,
      "inputs": [
        {
          "indexed": true,
          "name": "account",
          "type": "address"
        }
      ],
      "name": "SuperAdminAdded",
      "type": "event"
    },
    {
      "anonymous": false,
      "inputs": [
        {
          "indexed": true,
          "name": "account",
          "type": "address"
        }
      ],
      "name": "SuperAdminRemoved",
      "type": "event"
    }
  ],
  "bytecode": "0x60806040526200001e3362000024640100000000026401000000009004565b62000307565b62000048816000620000f464010000000002620016e2179091906401000000009004565b60018190806001815401808255809150509060018203906000526020600020016000909192909190916101000a81548173ffffffffffffffffffffffffffffffffffffffff021916908373ffffffffffffffffffffffffffffffffffffffff160217905550508073ffffffffffffffffffffffffffffffffffffffff167f286f82d2b1e37b5e9f33e455d014b4a5f6c29388e6e41e1281d4c83e04f4265560405160405180910390a250565b6200010f8282620001e3640100000000026401000000009004565b15151562000185576040517f08c379a000000000000000000000000000000000000000000000000000000000815260040180806020018281038252601f8152602001807f526f6c65733a206163636f756e7420616c72656164792068617320726f6c650081525060200191505060405180910390fd5b60018260000160008373ffffffffffffffffffffffffffffffffffffffff1673ffffffffffffffffffffffffffffffffffffffff16815260200190815260200160002060006101000a81548160ff0219169083151502179055505050565b60008073ffffffffffffffffffffffffffffffffffffffff168273ffffffffffffffffffffffffffffffffffffffff1614151515620002b0576040517f08c379a00000000000000000000000000000000000000000000000000000000081526004018080602001828103825260228152602001807f526f6c65733a206163636f756e7420697320746865207a65726f20616464726581526020017f737300000000000000000000000000000000000000000000000000000000000081525060400191505060405180910390fd5b8260000160008373ffffffffffffffffffffffffffffffffffffffff1673ffffffffffffffffffffffffffffffffffffffff16815260200190815260200160002060009054906101000a900460ff16905092915050565b6119c380620003176000396000f3006080604052600436106100e6576000357c0100000000000000000000000000000000000000000000000000000000900463ffffffff168063013cf08b146100eb57806317ef73451461020357806322aa8e7d1461022e57806334b485ea14610271578063416edaa0146102de5780634e170c82146102f557806350997be21461035057806358fe72b3146103bd5780635f01e6af146104005780636b7ff657146104435780639aa360ec1461046e578063a0d622b2146104c9578063b3292ff0146104f4578063cafdfa9d14610537578063df7f453b146105a4578063f0dd8790146105ff575b600080fd5b3480156100f757600080fd5b5061011660048036038101908080359060200190929190505050610642565b604051808a81526020018060200189600281111561013057fe5b60ff1681526020018873ffffffffffffffffffffffffffffffffffffffff1673ffffffffffffffffffffffffffffffffffffffff16815260200187815260200186815260200185815260200184815260200183815260200182810382528a818151815260200191508051906020019080838360005b838110156101c05780820151818401526020810190506101a5565b50505050905090810190601f1680156101ed5780820380516001836020036101000a031916815260200191505b509a505050505050505050505060405180910390f35b34801561020f57600080fd5b50610218610764565b6040518082815260200191505060405180910390f35b34801561023a57600080fd5b5061026f600480360381019080803573ffffffffffffffffffffffffffffffffffffffff169060200190929190505050610771565b005b34801561027d57600080fd5b5061029c60048036038101908080359060200190929190505050610820565b604051808273ffffffffffffffffffffffffffffffffffffffff1673ffffffffffffffffffffffffffffffffffffffff16815260200191505060405180910390f35b3480156102ea57600080fd5b506102f361085e565b005b34801561030157600080fd5b50610336600480360381019080803573ffffffffffffffffffffffffffffffffffffffff1690602001909291905050506108e8565b604051808215151515815260200191505060405180910390f35b34801561035c57600080fd5b5061037b60048036038101908080359060200190929190505050610905565b604051808273ffffffffffffffffffffffffffffffffffffffff1673ffffffffffffffffffffffffffffffffffffffff16815260200191505060405180910390f35b3480156103c957600080fd5b506103fe600480360381019080803573ffffffffffffffffffffffffffffffffffffffff169060200190929190505050610943565b005b34801561040c57600080fd5b50610441600480360381019080803573ffffffffffffffffffffffffffffffffffffffff1690602001909291905050506109f2565b005b34801561044f57600080fd5b50610458610aa1565b6040518082815260200191505060405180910390f35b34801561047a57600080fd5b506104af600480360381019080803573ffffffffffffffffffffffffffffffffffffffff169060200190929190505050610aae565b604051808215151515815260200191505060405180910390f35b3480156104d557600080fd5b506104de610acb565b6040518082815260200191505060405180910390f35b34801561050057600080fd5b50610535600480360381019080803573ffffffffffffffffffffffffffffffffffffffff169060200190929190505050610ad8565b005b34801561054357600080fd5b5061056260048036038101908080359060200190929190505050610b87565b604051808273ffffffffffffffffffffffffffffffffffffffff1673ffffffffffffffffffffffffffffffffffffffff16815260200191505060405180910390f35b3480156105b057600080fd5b506105e5600480360381019080803573ffffffffffffffffffffffffffffffffffffffff169060200190929190505050610bc5565b604051808215151515815260200191505060405180910390f35b34801561060b57600080fd5b50610640600480360381019080803573ffffffffffffffffffffffffffffffffffffffff169060200190929190505050610be2565b005b60068181548110151561065157fe5b9060005260206000209060080201600091509050806000015490806001018054600181600116156101000203166002900480601f0160208091040260200160405190810160405280929190818152602001828054600181600116156101000203166002900480156107035780601f106106d857610100808354040283529160200191610703565b820191906000526020600020905b8154815290600101906020018083116106e657829003601f168201915b5050505050908060020160009054906101000a900460ff16908060020160019054906101000a900473ffffffffffffffffffffffffffffffffffffffff16908060030154908060040154908060050154908060060154908060070154905089565b6000600580549050905090565b61077a33610bc5565b1515610814576040517f08c379a00000000000000000000000000000000000000000000000000000000081526004018080602001828103825260388152602001807f537570657241646d696e526f6c653a2063616c6c657220646f6573206e6f742081526020017f686176652074686520537570657241646d696e20726f6c65000000000000000081525060400191505060405180910390fd5b61081d81610c91565b50565b60018181548110151561082f57fe5b906000526020600020016000915054906101000a900473ffffffffffffffffffffffffffffffffffffffff1681565b6001610868610acb565b1115156108dd576040517f08c379a000000000000000000000000000000000000000000000000000000000815260040180806020018281038252601e8152602001807f537570657241646d696e732073686f756c64206d6f7265207468616e2030000081525060200191505060405180910390fd5b6108e633610d51565b565b60006108fe826002610f9f90919063ffffffff16565b9050919050565b60038181548110151561091457fe5b906000526020600020016000915054906101000a900473ffffffffffffffffffffffffffffffffffffffff1681565b61094c33610bc5565b15156109e6576040517f08c379a00000000000000000000000000000000000000000000000000000000081526004018080602001828103825260388152602001807f537570657241646d696e526f6c653a2063616c6c657220646f6573206e6f742081526020017f686176652074686520537570657241646d696e20726f6c65000000000000000081525060400191505060405180910390fd5b6109ef816110c2565b50565b6109fb33610bc5565b1515610a95576040517f08c379a00000000000000000000000000000000000000000000000000000000081526004018080602001828103825260388152602001807f537570657241646d696e526f6c653a2063616c6c657220646f6573206e6f742081526020017f686176652074686520537570657241646d696e20726f6c65000000000000000081525060400191505060405180910390fd5b610a9e81611312565b50565b6000600380549050905090565b6000610ac4826004610f9f90919063ffffffff16565b9050919050565b6000600180549050905090565b610ae133610bc5565b1515610b7b576040517f08c379a00000000000000000000000000000000000000000000000000000000081526004018080602001828103825260388152602001807f537570657241646d696e526f6c653a2063616c6c657220646f6573206e6f742081526020017f686176652074686520537570657241646d696e20726f6c65000000000000000081525060400191505060405180910390fd5b610b8481611562565b50565b600581815481101515610b9657fe5b906000526020600020016000915054906101000a900473ffffffffffffffffffffffffffffffffffffffff1681565b6000610bdb826000610f9f90919063ffffffff16565b9050919050565b610beb33610bc5565b1515610c85576040517f08c379a00000000000000000000000000000000000000000000000000000000081526004018080602001828103825260388152602001807f537570657241646d696e526f6c653a2063616c6c657220646f6573206e6f742081526020017f686176652074686520537570657241646d696e20726f6c65000000000000000081525060400191505060405180910390fd5b610c8e81611622565b50565b610ca58160046116e290919063ffffffff16565b60058190806001815401808255809150509060018203906000526020600020016000909192909190916101000a81548173ffffffffffffffffffffffffffffffffffffffff021916908373ffffffffffffffffffffffffffffffffffffffff160217905550508073ffffffffffffffffffffffffffffffffffffffff167f1059b73178c1e1c7bae92041298569a1be751395fb1df50e8c6cbed6b3c3490160405160405180910390a250565b600080610d68836000610f9f90919063ffffffff16565b1515610e02576040517f08c379a00000000000000000000000000000000000000000000000000000000081526004018080602001828103825260218152602001807f526f6c65733a206163636f756e7420646f6573206e6f74206861766520726f6c81526020017f650000000000000000000000000000000000000000000000000000000000000081525060400191505060405180910390fd5b610e168360006117bf90919063ffffffff16565b600091505b8273ffffffffffffffffffffffffffffffffffffffff16600183815481101515610e4157fe5b9060005260206000200160009054906101000a900473ffffffffffffffffffffffffffffffffffffffff1673ffffffffffffffffffffffffffffffffffffffff16141515610e96578180600101925050610e1b565b60018054905090506001808203815481101515610eaf57fe5b9060005260206000200160009054906101000a900473ffffffffffffffffffffffffffffffffffffffff16600183815481101515610ee957fe5b9060005260206000200160006101000a81548173ffffffffffffffffffffffffffffffffffffffff021916908373ffffffffffffffffffffffffffffffffffffffff160217905550610f49600180805490506118c190919063ffffffff16565b600181610f569190611946565b508273ffffffffffffffffffffffffffffffffffffffff167ffb445f6ec07647d2bb7af72821e6b8b7303ec375e934d4a338d38ed5846c2d5660405160405180910390a2505050565b60008073ffffffffffffffffffffffffffffffffffffffff168273ffffffffffffffffffffffffffffffffffffffff161415151561106b576040517f08c379a00000000000000000000000000000000000000000000000000000000081526004018080602001828103825260228152602001807f526f6c65733a206163636f756e7420697320746865207a65726f20616464726581526020017f737300000000000000000000000000000000000000000000000000000000000081525060400191505060405180910390fd5b8260000160008373ffffffffffffffffffffffffffffffffffffffff1673ffffffffffffffffffffffffffffffffffffffff16815260200190815260200160002060009054906101000a900460ff16905092915050565b6000806110d9836004610f9f90919063ffffffff16565b1515611173576040517f08c379a00000000000000000000000000000000000000000000000000000000081526004018080602001828103825260218152602001807f526f6c65733a206163636f756e7420646f6573206e6f74206861766520726f6c81526020017f650000000000000000000000000000000000000000000000000000000000000081525060400191505060405180910390fd5b6111878360046117bf90919063ffffffff16565b600091505b8273ffffffffffffffffffffffffffffffffffffffff166005838154811015156111b257fe5b9060005260206000200160009054906101000a900473ffffffffffffffffffffffffffffffffffffffff1673ffffffffffffffffffffffffffffffffffffffff1614151561120757818060010192505061118c565b600580549050905060056001820381548110151561122157fe5b9060005260206000200160009054906101000a900473ffffffffffffffffffffffffffffffffffffffff1660058381548110151561125b57fe5b9060005260206000200160006101000a81548173ffffffffffffffffffffffffffffffffffffffff021916908373ffffffffffffffffffffffffffffffffffffffff1602179055506112bc60016005805490506118c190919063ffffffff16565b6005816112c99190611946565b508273ffffffffffffffffffffffffffffffffffffffff167f32ac0786565d9ca8c7aeee5ec4e055589f42561844b7597ac21767e2306efb4060405160405180910390a2505050565b600080611329836002610f9f90919063ffffffff16565b15156113c3576040517f08c379a00000000000000000000000000000000000000000000000000000000081526004018080602001828103825260218152602001807f526f6c65733a206163636f756e7420646f6573206e6f74206861766520726f6c81526020017f650000000000000000000000000000000000000000000000000000000000000081525060400191505060405180910390fd5b6113d78360026117bf90919063ffffffff16565b600091505b8273ffffffffffffffffffffffffffffffffffffffff1660038381548110151561140257fe5b9060005260206000200160009054906101000a900473ffffffffffffffffffffffffffffffffffffffff1673ffffffffffffffffffffffffffffffffffffffff161415156114575781806001019250506113dc565b600380549050905060036001820381548110151561147157fe5b9060005260206000200160009054906101000a900473ffffffffffffffffffffffffffffffffffffffff166003838154811015156114ab57fe5b9060005260206000200160006101000a81548173ffffffffffffffffffffffffffffffffffffffff021916908373ffffffffffffffffffffffffffffffffffffffff16021790555061150c60016003805490506118c190919063ffffffff16565b6003816115199190611946565b508273ffffffffffffffffffffffffffffffffffffffff167f9569638a10f0324a9bd3b5345cc6d2b97eba0c53c4d3a137bbff4767ddca54b660405160405180910390a2505050565b6115768160006116e290919063ffffffff16565b60018190806001815401808255809150509060018203906000526020600020016000909192909190916101000a81548173ffffffffffffffffffffffffffffffffffffffff021916908373ffffffffffffffffffffffffffffffffffffffff160217905550508073ffffffffffffffffffffffffffffffffffffffff167f286f82d2b1e37b5e9f33e455d014b4a5f6c29388e6e41e1281d4c83e04f4265560405160405180910390a250565b6116368160026116e290919063ffffffff16565b60038190806001815401808255809150509060018203906000526020600020016000909192909190916101000a81548173ffffffffffffffffffffffffffffffffffffffff021916908373ffffffffffffffffffffffffffffffffffffffff160217905550508073ffffffffffffffffffffffffffffffffffffffff167f5f5a7f742093ddea204af941cc860e7e314d124f9f971cf785eac07f742ab06e60405160405180910390a250565b6116ec8282610f9f565b151515611761576040517f08c379a000000000000000000000000000000000000000000000000000000000815260040180806020018281038252601f8152602001807f526f6c65733a206163636f756e7420616c72656164792068617320726f6c650081525060200191505060405180910390fd5b60018260000160008373ffffffffffffffffffffffffffffffffffffffff1673ffffffffffffffffffffffffffffffffffffffff16815260200190815260200160002060006101000a81548160ff0219169083151502179055505050565b6117c98282610f9f565b1515611863576040517f08c379a00000000000000000000000000000000000000000000000000000000081526004018080602001828103825260218152602001807f526f6c65733a206163636f756e7420646f6573206e6f74206861766520726f6c81526020017f650000000000000000000000000000000000000000000000000000000000000081525060400191505060405180910390fd5b60008260000160008373ffffffffffffffffffffffffffffffffffffffff1673ffffffffffffffffffffffffffffffffffffffff16815260200190815260200160002060006101000a81548160ff0219169083151502179055505050565b600082821115151561193b576040517f08c379a00000000000000000000000000000000000000000000000000000000081526004018080602001828103825260138152602001807f536166654d61746820737562206661696c65640000000000000000000000000081525060200191505060405180910390fd5b818303905092915050565b81548183558181111561196d5781836000526020600020918201910161196c9190611972565b5b505050565b61199491905b80821115611990576000816000905550600101611978565b5090565b905600a165627a7a723058205c577d9e9910ac03c058b612f926a1deef1795a4d73fcb9ba35651d1a5a8313a0029",
  "source": "pragma solidity ^0.4.24;\n\nimport \"./SafeMath.sol\";\nimport \"./Roles.sol\";\n\n\n/// @title Voting \ncontract Ballot is SuperAdminRole, CommonRole, CouncilRole {\n    using SafeMath for uint256;\n\n    enum Status {\n        Begin,\n        On,\n        Done\n    }\n    // This is a type for a single proposal.\n    struct Proposal {\n        uint256 id;         // id\n        string path;        // \n        Status status;      // \n        address proposaler; // \n        uint256 begin;      // \n        uint256 on;         // \n        uint256 end;        // \n        uint256 support;    // \n        uint256 oppose;     // \n    }\n    // A dynamically-sized array of `Proposal` structs.\n    Proposal[] public proposals;\n\n  \n}",
  "sourcePath": "/home/flyq/workspaces/btcu/Voting_Contract/contracts/Ballot.sol",
  "compiler": {
    "name": "solc",
    "version": "0.4.24+commit.e67f0147.Emscripten.clang"
  },
  "schemaVersion": "3.0.16",
  "updatedAt": "2020-04-04T06:37:04.068Z",
  "devdoc": {
    "methods": {
      "CommonAmount()": {
        "details": "CommonAmount get the amount of white list",
        "return": "the amount of white list"
      },
      "CouncilAmount()": {
        "details": "CouncilAmount get the amount of white list",
        "return": "the amount of white list"
      },
      "addCommon(address)": {
        "details": "addCommon add another address to white list",
        "params": {
          "account": "the address that will be added"
        }
      },
      "addCouncil(address)": {
        "details": "addCouncil add another address to white list",
        "params": {
          "account": "the address that will be added"
        }
      },
      "addSuperAdmin(address)": {
        "details": "addSuperAdmin add another address to super admin",
        "params": {
          "account": "the address that will be added"
        }
      },
      "isCommon(address)": {
        "details": "isCommon check if the account is in white list",
        "params": {
          "account": "the address that will be checked"
        },
        "return": "bool, return true if account is in white list"
      },
      "isCouncil(address)": {
        "details": "isCouncil check if the account is in white list",
        "params": {
          "account": "the address that will be checked"
        },
        "return": "bool, return true if account is in white list"
      },
      "isSuperAdmin(address)": {
        "details": "isSuperAdmin check if the account is super admin",
        "params": {
          "account": "the address that will be checked"
        },
        "return": "bool, true if account is super admin."
      },
      "removeCommon(address)": {
        "details": "removeCommon remove someone from white list",
        "params": {
          "account": "the address that whill be remove"
        }
      },
      "removeCouncil(address)": {
        "details": "removeCouncil remove someone from white list",
        "params": {
          "account": "the address that whill be remove"
        }
      },
      "renounceSuperAdmin()": {
        "details": "renounceSuperAdmin remove himself super admin"
      },
      "superAdminAmount()": {
        "details": "superAdminAmount get the amount of super admin",
        "return": "the amount of super admin"
      }
    },
    "title": "Voting "
  },
  "userdoc": {
    "methods": {
      "addCommon(address)": {
        "notice": "only super admin can execute this function"
      },
      "addCouncil(address)": {
        "notice": "only super admin can execute this function"
      },
      "addSuperAdmin(address)": {
        "notice": "only super admin can execute this function"
      },
      "removeCommon(address)": {
        "notice": "only super admin can execute this function"
      },
      "removeCouncil(address)": {
        "notice": "only super admin can execute this function"
      },
      "renounceSuperAdmin()": {
        "notice": "only super admin can execute this functionthis function can be executed only when superAdminAmount bigger than 1"
      }
    }
  }
}